S012000043414C43554C41544F522E7372656328
S11300000C946B000C9480000C9480000C94800081
S11300100C9480000C9480000C9480000C9480005C
S11300200C9480000C9480000C9480000C9480004C
S11300300C9480000C9480000C9480000C9480003C
S11300400C9480000C9480000C9480000C9480002C
S11300500C94800007634236B79BD8A71A396856B8
S113006018AEBAAB558C1D3CB7CC5763BD6DEDFDD6
S1130070753EF6177231BF000000803F0800000093
S1130080BE922449123EABAAAA2ABECDCCCC4C3E89
S113009000000080BEABAAAAAA3E00000000BF0078
S11300A00000803F0000000000084178D3BB438774
S11300B0D1133D190E3CC3BD4282AD2B3E68EC8288
S11300C076BED98FE1A93E4C80EFFFBE01C4FF7F0D
S11300D03F000000000011241FBECFE5D8E0DEBFC2
S11300E0CDBF10E0A0E6B0E0E2ECF1E102C0059083
S11300F00D92A036B107D9F70E946A010C94DF086B
S11301000C940000CF930E9473038F3FE1F30E948D
S11301107303C82F0E9473038F3FE1F78C2FCF9195
S113012008950F931F934B3249F018F44A3281F02B
S113013019C04D3241F04F3281F014C0A901980129
S11301400E94FB0412C0A90198010E94FA040DC088
S1130150A90198010E94CB0608C0A90198010E9438
S11301606C0503C060E070E0CB011F910F9108950E
S11301704F925F926F927F928F929F92AF92BF92B3
S1130180CF92DF92EF92FF920F931F93CF93DF935F
S1130190DC01C12CD12C7601E0E027C080ED890F71
S11301A08A3000F5B701A601440F551F661F771F5B
S11301B08A019B01000F111F221F331F000F111F03
S11301C0221F331F400F511F621F731F40535109D9
S11301D0610971096A017B01C90ED11CE11CF11C82
S11301E0EF5F03C09E3209F457C0ED01CE0FD11D5D
S11301F098819111D3CF57C02A3010F5880C991CDF
S1130200AA1CBB1CB501A401440F551F661F771F10
S1130210440F551F661F771F840E951EA61EB71E1A
S113022020E3821A9108A108B108890E911CA11C2F
S1130230B11CEF5FED01CE0FD11D988120ED290F88
S11302409111DACF6E2F70E0FB01E81BF109BF01B9
S1130250FF0F880B990B0E9416069B01AC0160E00E
S113026070E080E291E40E9438072B013C01C50153
S1130270B4010E941406A30192010E946C054B0173
S11302805C01C701B6010E9414069B01AC01C501C3
S1130290B4010E94FB040DC081E08E0FE82F812C75
S11302A0912C5401C7CFEF5F8E2F812C912C5401D8
S11302B0C9CFDF91CF911F910F91FF90EF90DF9005
S11302C0CF90BF90AF909F908F907F906F905F90F2
S11302D04F900895CF93DF93CDB7DEB7C654D109BD
S11302E00FB6F894DEBF0FBECDBF0E9423040E9458
S11302F06E037E012BE0E20EF11C3E0135E1630E3C
S1130300711C2696EFAE26972796FFAE2797512CA1
S1130310D12C0E948200182F80ED810F8A3010F0BA
S11303201E3249F4812F0E945A04F701ED0DF11D8C
S11303301083D394EECFC52CD12C26968FAD26975F
S113034027969FAD27970E94B800F601EE0FFF1F76
S1130350EE0FFF1F21E030E02C0F3D1FE20FF31FD3
S1130360648B758B868B978BF7011192E615F705D5
S1130370E1F7812F8D7F8D3221F086ED810F823060
S113038058F4812F0E945A04E1E0F0E0EC0FFD1FC5
S1130390EC0DFD1D10830BC01D3349F480EC0E944D
S11303A0DD038DE30E945A04511003C092C153949B
S11303B0AFCF5E0135E1A30EB11C4E01CC24CA942B
S11303C0C50CD12C44244394512C4C0E5D1E4C0C72
S11303D05D1C1401F40141814A3211F04F3201F5E0
S11303E0BEAEADAEF50104811581268137816081F1
S11303F07181828193810E949100F50164837583E8
S1130400868397832BE2F101218380818D3211F45D
S11304103DE23183EDADFEAD108211821282138272
S1130420F4E0AF0EB11C2FEF821A920A84149504E3
S113043081F63DC1F10101911191219131911F0189
S1130440F20141912F01C501B4010E9491004B01B9
S11304505C014C145D0471F720E030E0A901C50192
S1130460B4010E94670588230CF08DC0C501B40156
S11304700E94DE050E941606A50194010E946705EC
S1130480811124C0B7FAB094B7F8B0948DE20E94F9
S11304905A0420E030E040E85FE3C501B4010E9463
S11304A06705882364F420E030E0A901C501B401A4
S11304B00E94C60618161CF480E30E945A04C50163
S11304C0B4010E94E5050E94A004E9C0B7FAB09403
S11304D0B7F8B0948DE20E945A0420E030E040E87E
S11304E05FE3C501B4010E946705882364F420E03A
S11304F030E0A901C501B4010E94C60618161CF417
S113050080E30E945A04C501B4010E94E5051B0161
S11305102C010E94A0048EE20E945A04C201B1017F
S11305200E9414069B01AC01C501B4010E94FA04A7
S113053020E030E04AE754E40E94CB064B015C0122
S113054020E030E040E251E40E94670588233CF457
S113055080E30E945A0480E30E945A040DC020E004
S113056030E048EC52E4C501B4010E9467058823D9
S11305701CF480E30E945A04C501B4010E94E505FD
S11305800E94A0048CC0C501B4010E94E505219617
S11305906CAF7DAF8EAF9FAF21970E941406259656
S11305A06CAF7DAF8EAF9FAF2597A50194010E94DC
S11305B0670581111FC020E030E040E85FE3C5011A
S11305C0B4010E946705882364F420E030E0A901A7
S11305D0C501B4010E94C60618161CF480E30E94EB
S11305E05A0421966CAD7DAD8EAD9FAD21970E94CE
S11305F0A00455C020E030E040E85FE3C501B40149
S11306000E946705882364F420E030E0A901C50155
S1130610B4010E94C60618161CF480E30E945A0412
S113062021966CAD7DAD8EAD9FAD21970E94A00447
S11306308EE20E945A0425962CAD3DAD4EAD5FADC1
S11306402597C501B4010E94FA0420E030E04AE78E
S113065054E40E94CB064B015C0120E030E040E210
S113066051E40E94670588233CF480E30E945A0405
S113067080E30E945A040DC020E030E048EC52E4CC
S1130680C501B4010E94670588231CF480E30E941D
S11306905A04C501B4010E94E5050E94A0040E9409
S11306A082008E32E1F781E00E94DD0330CE8D8836
S11306B09E88AF88B88C1E01F9E12F0E311C9E0173
S11306C02F5F3F4F29013FEFC31AD30AC40CD51C37
S11306D0B1CE8D889E88AF88B88CBECE80EF84BBA7
S11306E08FEF85BB0895AC98AD9AAE9AAF9A989B5C
S11306F044C0999B44C09A9B44C09B9B44C08FE1D7
S11307009EE40197F1F700C00000AC9AAD98AE9A50
S1130710AF9A989B3AC0999B3AC09A9B3AC09B9BCC
S11307203AC08FE19EE40197F1F700C00000AC9A53
S1130730AD9AAE98AF9A989B30C0999B30C09A9B63
S113074030C09B9B30C08FE19EE40197F1F700C05D
S11307500000AC9AAD9AAE9AAF98989B26C0999B2C
S113076026C09A9B26C09B9B26C08FE19EE40197DE
S1130770F1F700C000008FEF089587E3089588E340
S1130780089589E308958FE2089584E3089585E345
S1130790089586E308958AE2089581E3089582E343
S11307A0089583E308958DE208958EE2089580E329
S11307B008958DE308958BE20895DA98882314F45C
S11307C0DF9A01C0DF9886FF02C0DE9A01C0DE987E
S11307D085FF02C0DD9A01C0DD9884FF02C0DC9A67
S11307E001C0DC98DB9AEFE9FFE03197F1F700C034
S11307F00000DB98EFE9FFE03197F1F700C000005B
S113080083FF02C0DF9A01C0DF9882FF02C0DE9A34
S113081001C0DE9881FF02C0DD9A01C0DD9880FF2F
S113082002C0DC9A01C0DC98DB9A8FE99FE0019753
S1130830F1F700C00000DB98EFE9FFE03197F1F732
S113084000C0000008958AB38C6F8ABB83E00E94C5
S1130850DD038FE79EE30197F1F700C0000083E01A
S11308600E94DD038FE79EE30197F1F700C00000CB
S113087083E00E94DD038FE79EE30197F1F700C058
S1130880000082E00E94DD0388E20E94DD0381E033
S11308900E94DD0386E00E94DD038CE00E94DD03FC
S11308A09FEF29EF80E0915020408040E1F700C0A5
S11308B000000895DA9A882314F4DF9A01C0DF98BF
S11308C086FF02C0DE9A01C0DE9885FF02C0DD9A71
S11308D001C0DD9884FF02C0DC9A01C0DC98DB9A79
S11308E0EFE9FFE03197F1F700C00000DB98EFE992
S11308F0FFE03197F1F700C0000083FF02C0DF9AE8
S113090001C0DF9882FF02C0DE9A01C0DE9881FF39
S113091002C0DD9A01C0DD9880FF02C0DC9A01C0EC
S1130920DC98DB9A8FE99FE00197F1F700C00000A3
S1130930DB98EFE9FFE03197F1F700C0000008957C
S11309408F929F92AF92BF92EF92FF921F93CF9399
S1130950DF93CDB7DEB72A970FB6F894DEBF0FBE8C
S1130960CDBF6115710581059105A1F110E00F2E30
S1130970FAE08F2E912CA12CB12CF02D01C0122F56
S1130980EE24E394F12CEC0EFD1EE10EF11C17FD98
S1130990FA94A50194010E94BD08F7016083622FB7
S11309A0732F842F952F21E0210F61157105810587
S11309B0910529F7112374F0E1E0F0E0EC0FFD1F3D
S11309C0E10FF11D17FDFA958081805D0E945A04A4
S11309D0115092F72A960FB6F894DEBF0FBECDBF22
S11309E0DF91CF911F91FF90EF90BF90AF909F90B8
S11309F08F9008955058BB27AA270E9412050C9483
S1130A008C060E947E0638F00E94850620F039F498
S1130A109F3F19F426F40C947B060EF4E095E7FB53
S1130A200C947506E92F0E949D0658F3BA176207C5
S1130A3073078407950720F079F4A6F50C94BF0694
S1130A400EF4E0950B2EBA2FA02D0B01B9019001E5
S1130A500C01CA01A0011124FF27591B99F0593F29
S1130A6050F4503E68F11A16F040A22F232F342F71
S1130A704427585FF3CF469537952795A795F040BF
S1130A805395C9F77EF41F16BA0B620B730B840BD4
S1130A90BAF09150A1F0FF0FBB1F661F771F881F8C
S1130AA0C2F70EC0BA0F621F731F841F48F48795E4
S1130AB077956795B795F7959E3F08F0B0CF9395D6
S1130AC0880F08F09927EE0F9795879508950E944F
S1130AD0510608F481E008950E9480050C948C0668
S1130AE00E94850658F00E947E0640F029F45F3F7C
S1130AF029F00C94750651110C94C0060C947B06D5
S1130B000E949D0668F39923B1F3552391F3951B35
S1130B10550BBB27AA2762177307840738F09F5F1A
S1130B205F4F220F331F441FAA1FA9F335D00E2E87
S1130B303AF0E0E832D091505040E695001CCAF7F4
S1130B402BD0FE2F29D0660F771F881FBB1F2617B7
S1130B5037074807AB07B0E809F0BB0B802DBF018E
S1130B60FF2793585F4F3AF09E3F510578F00C945D
S1130B7075060C94C0065F3FE4F3983ED4F3869563
S1130B8077956795B795F7959F5FC9F7880F911D7E
S1130B909695879597F90895E1E0660F771F881F6A
S1130BA0BB1F621773078407BA0720F0621B730B1D
S1130BB0840BBA0BEE1F88F7E09508950E94E505B3
S1130BC06894B1110C94C00608950E94A50688F09B
S1130BD09F5798F0B92F9927B751B0F0E1F0660FFD
S1130BE0771F881F991F1AF0BA95C9F714C0B1303E
S1130BF091F00E94BF06B1E008950C94BF06672FE0
S1130C00782F8827B85F39F0B93FCCF3869577956C
S1130C106795B395D9F73EF4909580957095619555
S1130C207F4F8F4F9F4F0895E89409C097FB3EF480
S1130C3090958095709561957F4F8F4F9F4F992325
S1130C40A9F0F92F96E9BB279395F69587957795A3
S1130C506795B795F111F8CFFAF4BB0F11F460FF63
S1130C601BC06F5F7F4F8F4F9F4F16C0882311F0BB
S1130C7096E911C0772321F09EE8872F762F05C0CF
S1130C80662371F096E8862F70E060E02AF09A956A
S1130C90660F771F881FDAF7880F9695879597F95F
S1130CA00895990F0008550FAA0BE0E8FEEF1616F9
S1130CB01706E807F907C0F012161306E407F5074C
S1130CC098F0621B730B840B950B39F40A2661F0C0
S1130CD0232B242B252B21F408950A2609F4A14063
S1130CE0A6958FEF811D811D089597F99F6780E870
S1130CF070E060E008959FEF80EC089500240A946A
S1130D001616170618060906089500240A941216E2
S1130D101306140605060895092E0394000C11F415
S1130D20882352F0BB0F40F4BF2B11F460FF04C0C2
S1130D306F5F7F4F8F4F9F4F089557FD9058440F1B
S1130D40551F59F05F3F71F04795880F97FB991F26
S1130D5061F09F3F79F087950895121613061406E3
S1130D60551FF2CF4695F1DF08C016161706180670
S1130D70991FF1CF86957105610508940895E8944B
S1130D80BB2766277727CB0197F908950E94510660
S1130D9008F48FEF08950E94DE060C948C060E94DE
S1130DA07E0638F00E94850620F0952311F00C94FD
S1130DB075060C947B0611240C94C0060E949D06B3
S1130DC070F3959FC1F3950F50E0551F629FF0019A
S1130DD0729FBB27F00DB11D639FAA27F00DB11DB3
S1130DE0AA1F649F6627B00DA11D661F829F22273C
S1130DF0B00DA11D621F739FB00DA11D621F839FC3
S1130E00A00D611D221F749F3327A00D611D231F98
S1130E10849F600D211D822F762F6A2F11249F57E6
S1130E2050409AF0F1F088234AF0EE0FFF1FBB1FE9
S1130E30661F771F881F91505040A9F79E3F5105A8
S1130E4080F00C9475060C94C0065F3FE4F3983E62
S1130E50D4F3869577956795B795F795E7959F5F52
S1130E60C1F7FE2B880F911D9695879597F90895E4
S1130E70FA01EE0FFF1F309621053105A1F161152E
S1130E80710561F48038BFE39B0749F16894903899
S1130E90810561F08038BFEF9B0741F099234AF543
S1130EA0FF3FE1053105210519F1E8940894E79520
S1130EB0D901AA2329F4AB2FBE2FF85FD0F310C0B9
S1130EC0FF5F70F4A695E0F7F73950F019F0FF3A98
S1130ED038F49F779F930DD00F9007FC9058089596
S1130EE046F00C947B0660E070E080E89FE3089590
S1130EF04FE79F775F934F933F932F930E9433085D
S1130F002F913F914F915F910E94CB060C949007D3
S1130F1029F416F00C9475060C94BF060C947B0609
S1130F200E94A506A8F39638A0F707F80F92E89454
S1130F302BE33AEA48EB5FE70E94E1060F920F9237
S1130F400F924DB75EB70F920E947B08E4E5F0E084
S1130F500E94C2074F915F91EF91FF91E595EE1FBB
S1130F60FF1F49F0FE57E0684427EE0F441FFA952F
S1130F70E1F74195550B0E94F5070F9007FE0C947D
S1130F80E9070895DF93CF931F930F93FF92EF9296
S1130F90DF927B018C01689406C0DA2EEF010E9477
S1130FA0DE06FE01E894A591259135914591559170
S1130FB0A6F3EF010E941205FE019701A801DA943D
S1130FC069F7DF90EF90FF900F911F91CF91DF9120
S1130FD008959B01AC0160E070E080E89FE30C940D
S1130FE06C050C9475060C94AF080E94A506D8F302
S1130FF09923C9F3940F511DA3F39150504094F0D9
S113100059F0882332F0660F771F881F91505040A3
S1131010C1F79E3F51052CF7880F911D9695879532
S113102097F908955F3FACF0983E9CF0BB278695F6
S113103077956795B79508F4B1609395C1F7BB0FA1
S113104058F711F460FFE8CF6F5F7F4F8F4F9F4FCA
S1131050E3CF0C94C00616F00C94AF080C947B06F6
S113106068940C9475060E94A506A8F39923C1F30D
S1131070AEF3DF93CF931F930F93FF92C92FDD2716
S113108088232AF02197660F771F881FDAF720E05C
S113109030E040E85FEB9FE3883920F0803E38F091
S11310A021968F770E94FB04ECE7F0E004C00E94D5
S11310B0FB04E9EAF0E00E94C2078B01BE01EC01E7
S11310C0FB2E6F5771097595771F880B990B0E943A
S11310D0160628E132E741E35FE30E94DE06AF2D06
S11310E09801AE01FF900F911F91CF91DF910E9463
S11310F012050C948C06FA01DC01AA0FBB1F9B019C
S1131100AC01BF5728F4222733274427507820C046
S1131110B75190F4AB2F0024469537952795011CC1
S1131120A395D2F3002071F0220F331F441FB3950F
S1131130DAF30ED00C94FA0461307105A0E88A0742
S1131140B94630F49B01AC0166277727882790784D
S1131150309621F0208331834283538308959F3F47
S113116031F0915020F4879577956795B795880F5E
S1131170911D9695879597F90895A1E21A2EAA1BB9
S1131180BB1BFD010DC0AA1FBB1FEE1FFF1FA21733
S1131190B307E407F50720F0A21BB30BE40BF50B30
S11311A0661F771F881F991F1A9469F760957095B9
S11311B0809590959B01AC01BD01CF010895F894F1
S10511C0FFCF5B
S9030000FC
